{
  "_format": "hh-sol-artifact-1",
  "contractName": "Auction",
  "sourceName": "contracts/Auction.sol",
  "abi": [
    {
      "inputs": [],
      "stateMutability": "nonpayable",
      "type": "constructor"
    },
    {
      "anonymous": false,
      "inputs": [
        {
          "indexed": true,
          "internalType": "address",
          "name": "sender",
          "type": "address"
        },
        {
          "indexed": false,
          "internalType": "uint256",
          "name": "amount",
          "type": "uint256"
        }
      ],
      "name": "Bid",
      "type": "event"
    },
    {
      "anonymous": false,
      "inputs": [
        {
          "indexed": false,
          "internalType": "address",
          "name": "highestBidder",
          "type": "address"
        },
        {
          "indexed": false,
          "internalType": "uint256",
          "name": "highestBid",
          "type": "uint256"
        }
      ],
      "name": "End",
      "type": "event"
    },
    {
      "anonymous": false,
      "inputs": [],
      "name": "Start",
      "type": "event"
    },
    {
      "anonymous": false,
      "inputs": [
        {
          "indexed": true,
          "internalType": "address",
          "name": "bidder",
          "type": "address"
        },
        {
          "indexed": false,
          "internalType": "uint256",
          "name": "amount",
          "type": "uint256"
        }
      ],
      "name": "Withdraw",
      "type": "event"
    },
    {
      "inputs": [],
      "name": "bid",
      "outputs": [],
      "stateMutability": "payable",
      "type": "function"
    },
    {
      "inputs": [
        {
          "internalType": "address",
          "name": "",
          "type": "address"
        }
      ],
      "name": "bids",
      "outputs": [
        {
          "internalType": "uint256",
          "name": "",
          "type": "uint256"
        }
      ],
      "stateMutability": "view",
      "type": "function"
    },
    {
      "inputs": [],
      "name": "end",
      "outputs": [],
      "stateMutability": "nonpayable",
      "type": "function"
    },
    {
      "inputs": [],
      "name": "endAt",
      "outputs": [
        {
          "internalType": "uint256",
          "name": "",
          "type": "uint256"
        }
      ],
      "stateMutability": "view",
      "type": "function"
    },
    {
      "inputs": [],
      "name": "ended",
      "outputs": [
        {
          "internalType": "bool",
          "name": "",
          "type": "bool"
        }
      ],
      "stateMutability": "view",
      "type": "function"
    },
    {
      "inputs": [],
      "name": "highestBid",
      "outputs": [
        {
          "internalType": "uint256",
          "name": "",
          "type": "uint256"
        }
      ],
      "stateMutability": "view",
      "type": "function"
    },
    {
      "inputs": [],
      "name": "highestBidder",
      "outputs": [
        {
          "internalType": "address",
          "name": "",
          "type": "address"
        }
      ],
      "stateMutability": "view",
      "type": "function"
    },
    {
      "inputs": [],
      "name": "nft",
      "outputs": [
        {
          "internalType": "contract IERC721",
          "name": "",
          "type": "address"
        }
      ],
      "stateMutability": "view",
      "type": "function"
    },
    {
      "inputs": [],
      "name": "nftId",
      "outputs": [
        {
          "internalType": "uint256",
          "name": "",
          "type": "uint256"
        }
      ],
      "stateMutability": "view",
      "type": "function"
    },
    {
      "inputs": [],
      "name": "seller",
      "outputs": [
        {
          "internalType": "address payable",
          "name": "",
          "type": "address"
        }
      ],
      "stateMutability": "view",
      "type": "function"
    },
    {
      "inputs": [
        {
          "internalType": "contract IERC721",
          "name": "_nft",
          "type": "address"
        },
        {
          "internalType": "uint256",
          "name": "_nftId",
          "type": "uint256"
        },
        {
          "internalType": "uint256",
          "name": "startingBid",
          "type": "uint256"
        }
      ],
      "name": "start",
      "outputs": [],
      "stateMutability": "nonpayable",
      "type": "function"
    },
    {
      "inputs": [],
      "name": "started",
      "outputs": [
        {
          "internalType": "bool",
          "name": "",
          "type": "bool"
        }
      ],
      "stateMutability": "view",
      "type": "function"
    },
    {
      "inputs": [],
      "name": "withdraw",
      "outputs": [],
      "stateMutability": "payable",
      "type": "function"
    }
  ],
  "bytecode": "0x608060405234801561001057600080fd5b50336000806101000a81548173ffffffffffffffffffffffffffffffffffffffff021916908373ffffffffffffffffffffffffffffffffffffffff1602179055506115ad806100606000396000f3fe6080604052600436106100c25760003560e01c806350f8a01e1161007f57806391f901571161005957806391f9015714610218578063c6bc518214610243578063d57bde791461026e578063efbe1c1c14610299576100c2565b806350f8a01e1461018757806362ea82db146101b05780637cc3ae8c146101ed576100c2565b806308551a53146100c757806312fa6feb146100f25780631998aeef1461011d5780631f2698ab146101275780633ccfd60b1461015257806347ccca021461015c575b600080fd5b3480156100d357600080fd5b506100dc6102b0565b6040516100e9919061100e565b60405180910390f35b3480156100fe57600080fd5b506101076102d4565b60405161011491906110c0565b60405180910390f35b6101256102e7565b005b34801561013357600080fd5b5061013c610515565b60405161014991906110c0565b60405180910390f35b61015a610528565b005b34801561016857600080fd5b506101716106b2565b60405161017e91906110db565b60405180910390f35b34801561019357600080fd5b506101ae60048036038101906101a99190610dd7565b6106d8565b005b3480156101bc57600080fd5b506101d760048036038101906101d29190610dae565b610911565b6040516101e49190611216565b60405180910390f35b3480156101f957600080fd5b50610202610929565b60405161020f9190611216565b60405180910390f35b34801561022457600080fd5b5061022d61092f565b60405161023a9190610ff3565b60405180910390f35b34801561024f57600080fd5b50610258610955565b6040516102659190611216565b60405180910390f35b34801561027a57600080fd5b5061028361095b565b6040516102909190611216565b60405180910390f35b3480156102a557600080fd5b506102ae610961565b005b60008054906101000a900473ffffffffffffffffffffffffffffffffffffffff1681565b600060159054906101000a900460ff1681565b600060149054906101000a900460ff16610336576040517f08c379a000000000000000000000000000000000000000000000000000000000815260040161032d906111b6565b60405180910390fd5b600154421061037a576040517f08c379a000000000000000000000000000000000000000000000000000000000815260040161037190611136565b60405180910390fd5b600454341161038857600080fd5b600073ffffffffffffffffffffffffffffffffffffffff16600560009054906101000a900473ffffffffffffffffffffffffffffffffffffffff1673ffffffffffffffffffffffffffffffffffffffff16146104595760045460066000600560009054906101000a900473ffffffffffffffffffffffffffffffffffffffff1673ffffffffffffffffffffffffffffffffffffffff1673ffffffffffffffffffffffffffffffffffffffff1681526020019081526020016000206000828254610451919061124d565b925050819055505b3460048190555033600560006101000a81548173ffffffffffffffffffffffffffffffffffffffff021916908373ffffffffffffffffffffffffffffffffffffffff160217905550600560009054906101000a900473ffffffffffffffffffffffffffffffffffffffff1673ffffffffffffffffffffffffffffffffffffffff167fe684a55f31b79eca403df938249029212a5925ec6be8012e099b45bc1019e5d260045460405161050b9190611216565b60405180910390a2565b600060149054906101000a900460ff1681565b6000600660003373ffffffffffffffffffffffffffffffffffffffff1673ffffffffffffffffffffffffffffffffffffffff1681526020019081526020016000205490506000600660003373ffffffffffffffffffffffffffffffffffffffff1673ffffffffffffffffffffffffffffffffffffffff168152602001908152602001600020819055506000803373ffffffffffffffffffffffffffffffffffffffff16836040516105d890610fde565b60006040518083038185875af1925050503d8060008114610615576040519150601f19603f3d011682016040523d82523d6000602084013e61061a565b606091505b50915091508161065f576040517f08c379a0000000000000000000000000000000000000000000000000000000008152600401610656906111f6565b60405180910390fd5b3373ffffffffffffffffffffffffffffffffffffffff167f884edad9ce6fa2440d8a54cc123490eb96d2768479d49ff9c7366125a9424364846040516106a59190611216565b60405180910390a2505050565b600260009054906101000a900473ffffffffffffffffffffffffffffffffffffffff1681565b600060149054906101000a900460ff1615610728576040517f08c379a000000000000000000000000000000000000000000000000000000000815260040161071f90611116565b60405180910390fd5b60008054906101000a900473ffffffffffffffffffffffffffffffffffffffff1673ffffffffffffffffffffffffffffffffffffffff163373ffffffffffffffffffffffffffffffffffffffff16146107b6576040517f08c379a00000000000000000000000000000000000000000000000000000000081526004016107ad90611196565b60405180910390fd5b8060048190555082600260006101000a81548173ffffffffffffffffffffffffffffffffffffffff021916908373ffffffffffffffffffffffffffffffffffffffff16021790555081600381905550600260009054906101000a900473ffffffffffffffffffffffffffffffffffffffff1673ffffffffffffffffffffffffffffffffffffffff166323b872dd33306003546040518463ffffffff1660e01b815260040161086693929190611060565b600060405180830381600087803b15801561088057600080fd5b505af1158015610894573d6000803e3d6000fd5b505050506001600060146101000a81548160ff02191690831515021790555060008060156101000a81548160ff0219169083151502179055506078426108da919061124d565b6001819055507f1b55ba3aa851a46be3b365aee5b5c140edd620d578922f3e8466d2cbd96f954b60405160405180910390a1505050565b60066020528060005260406000206000915090505481565b60015481565b600560009054906101000a900473ffffffffffffffffffffffffffffffffffffffff1681565b60035481565b60045481565b600060149054906101000a900460ff166109b0576040517f08c379a00000000000000000000000000000000000000000000000000000000081526004016109a790611176565b60405180910390fd5b6001544210156109f5576040517f08c379a00000000000000000000000000000000000000000000000000000000081526004016109ec906110f6565b60405180910390fd5b600060159054906101000a900460ff1615610a45576040517f08c379a0000000000000000000000000000000000000000000000000000000008152600401610a3c906111d6565b60405180910390fd5b600073ffffffffffffffffffffffffffffffffffffffff16600560009054906101000a900473ffffffffffffffffffffffffffffffffffffffff1673ffffffffffffffffffffffffffffffffffffffff1614610c275760008060008054906101000a900473ffffffffffffffffffffffffffffffffffffffff1673ffffffffffffffffffffffffffffffffffffffff16600454604051610ae490610fde565b60006040518083038185875af1925050503d8060008114610b21576040519150601f19603f3d011682016040523d82523d6000602084013e610b26565b606091505b509150915081610b6b576040517f08c379a0000000000000000000000000000000000000000000000000000000008152600401610b6290611156565b60405180910390fd5b600260009054906101000a900473ffffffffffffffffffffffffffffffffffffffff1673ffffffffffffffffffffffffffffffffffffffff166323b872dd30600560009054906101000a900473ffffffffffffffffffffffffffffffffffffffff166003546040518463ffffffff1660e01b8152600401610bee93929190611060565b600060405180830381600087803b158015610c0857600080fd5b505af1158015610c1c573d6000803e3d6000fd5b505050505050610cdb565b600260009054906101000a900473ffffffffffffffffffffffffffffffffffffffff1673ffffffffffffffffffffffffffffffffffffffff166323b872dd3060008054906101000a900473ffffffffffffffffffffffffffffffffffffffff166003546040518463ffffffff1660e01b8152600401610ca893929190611029565b600060405180830381600087803b158015610cc257600080fd5b505af1158015610cd6573d6000803e3d6000fd5b505050505b6001600060156101000a81548160ff02191690831515021790555060008060146101000a81548160ff0219169083151502179055507f7d7570b046e5ead3a4f3fbc9fa2445113625a1e79823776146316bafed6b8cc5600560009054906101000a900473ffffffffffffffffffffffffffffffffffffffff16600454604051610d65929190611097565b60405180910390a1565b600081359050610d7e81611532565b92915050565b600081359050610d9381611549565b92915050565b600081359050610da881611560565b92915050565b600060208284031215610dc057600080fd5b6000610dce84828501610d6f565b91505092915050565b600080600060608486031215610dec57600080fd5b6000610dfa86828701610d84565b9350506020610e0b86828701610d99565b9250506040610e1c86828701610d99565b9150509250925092565b610e2f8161130f565b82525050565b610e3e816112b5565b82525050565b610e4d816112a3565b82525050565b610e5c816112c7565b82525050565b610e6b81611321565b82525050565b6000610e7e60198361123c565b9150610e8982611398565b602082019050919050565b6000610ea160108361123c565b9150610eac826113c1565b602082019050919050565b6000610ec460068361123c565b9150610ecf826113ea565b602082019050919050565b6000610ee760158361123c565b9150610ef282611413565b602082019050919050565b6000610f0a60188361123c565b9150610f158261143c565b602082019050919050565b6000610f2d60238361123c565b9150610f3882611465565b604082019050919050565b6000610f50600c8361123c565b9150610f5b826114b4565b602082019050919050565b6000610f73600083611231565b9150610f7e826114dd565b600082019050919050565b6000610f9660168361123c565b9150610fa1826114e0565b602082019050919050565b6000610fb960128361123c565b9150610fc482611509565b602082019050919050565b610fd881611305565b82525050565b6000610fe982610f66565b9150819050919050565b60006020820190506110086000830184610e44565b92915050565b60006020820190506110236000830184610e35565b92915050565b600060608201905061103e6000830186610e44565b61104b6020830185610e26565b6110586040830184610fcf565b949350505050565b60006060820190506110756000830186610e44565b6110826020830185610e44565b61108f6040830184610fcf565b949350505050565b60006040820190506110ac6000830185610e44565b6110b96020830184610fcf565b9392505050565b60006020820190506110d56000830184610e53565b92915050565b60006020820190506110f06000830184610e62565b92915050565b6000602082019050818103600083015261110f81610e71565b9050919050565b6000602082019050818103600083015261112f81610e94565b9050919050565b6000602082019050818103600083015261114f81610eb7565b9050919050565b6000602082019050818103600083015261116f81610eda565b9050919050565b6000602082019050818103600083015261118f81610efd565b9050919050565b600060208201905081810360008301526111af81610f20565b9050919050565b600060208201905081810360008301526111cf81610f43565b9050919050565b600060208201905081810360008301526111ef81610f89565b9050919050565b6000602082019050818103600083015261120f81610fac565b9050919050565b600060208201905061122b6000830184610fcf565b92915050565b600081905092915050565b600082825260208201905092915050565b600061125882611305565b915061126383611305565b9250827fffffffffffffffffffffffffffffffffffffffffffffffffffffffffffffffff0382111561129857611297611369565b5b828201905092915050565b60006112ae826112e5565b9050919050565b60006112c0826112e5565b9050919050565b60008115159050919050565b60006112de826112a3565b9050919050565b600073ffffffffffffffffffffffffffffffffffffffff82169050919050565b6000819050919050565b600061131a82611345565b9050919050565b600061132c82611333565b9050919050565b600061133e826112e5565b9050919050565b600061135082611357565b9050919050565b6000611362826112e5565b9050919050565b7f4e487b7100000000000000000000000000000000000000000000000000000000600052601160045260246000fd5b7f41756374696f6e206973207374696c6c206f6e676f696e672100000000000000600082015250565b7f416c726561647920737461727465642100000000000000000000000000000000600082015250565b7f456e646564210000000000000000000000000000000000000000000000000000600082015250565b7f436f756c64206e6f74207061792073656c6c6572210000000000000000000000600082015250565b7f596f75206e65656420746f207374617274206669727374210000000000000000600082015250565b7f596f7520617265206e6f7420746865206f776e6572206f662074686973204e4660008201527f5420210000000000000000000000000000000000000000000000000000000000602082015250565b7f4e6f7420737461727465642e0000000000000000000000000000000000000000600082015250565b50565b7f41756374696f6e20616c726561647920656e6465642100000000000000000000600082015250565b7f436f756c64206e6f742077697468647261770000000000000000000000000000600082015250565b61153b816112a3565b811461154657600080fd5b50565b611552816112d3565b811461155d57600080fd5b50565b61156981611305565b811461157457600080fd5b5056fea2646970667358221220ee43406a6ba5f585b04c775fdf21461b1719b79f234ad8560806a262cdc98c9964736f6c63430008010033",
  "linkReferences": {},
  "deployedLinkReferences": {}
}